:020000040000FA
:060000000A128A110C280F
:10000800FE00030EF1000A08F2000A128A15B72C46
:100018000A128A110F28831603130A128A11FD2760
:100028000A128A11B3000A128A11FE270A128A11CB
:10003800B400FA0183010A128A11942F8312031360
:100048002D088039B2003208B7002D08B2003207F7
:10005800B3003308BD00AC1F3228332834283D14C0
:100068003D0803193828392848283D0A031D3D282A
:100078003E2846280030AD000030AC000030AB0010
:100088000030AA00AC1750280030AD000030AC009A
:100098000030AB000030AA0031088039B2003208C5
:1000A800B7063108B2003207B3003308BC00B01FEE
:1000B8005E285F2860283C143C08031964286528DA
:1000C80074283C0A031D69286A2872280030B10088
:1000D8000030B0000030AF000030AE00B0177C2810
:1000E8000030B1000030B0000030AF000030AE008A
:1000F8003C0803198028812886283D08031D852887
:1001080086288F280030AD000030AC000030AB00EE
:100118000030AA00822B2A08B2003208F300300807
:100128000A128A158E240A128A117408831203137C
:10013800C3007308C2004208B200B301B401B5019C
:100148003508BB003408BA003308B9003208B800D3
:100158004308B200B301B401B5013508C100340841
:10016800C0003308BF003208BE002B08B2003208B6
:10017800F3002F080A128A158E240A128A117408AD
:1001880083120313C3007308C2004208B200B3010C
:10019800B401B5013208B807330803110318013E4A
:1001A8000319D728B907340803110318013E0319A6
:1001B800DE28BA07350803110318013E0319E5289C
:1001C800BB074308B200B301B401B5013208BE074A
:1001D800330803110318013E0319F328BF07340835
:1001E80003110318013E0319FA28C0073508031143
:1001F8000318013E03190129C1072C08B20032086F
:10020800F3002E080A128A158E240A128A1174081D
:1002180083120313C3007308C2004208B200B3017B
:10022800B401B5013208B807330803110318013EB9
:1002380003191F29B907340803110318013E0319CC
:100248002629BA07350803110318013E03192D2979
:10025800BB074308B200B301B401B5013208BE07B9
:10026800330803110318013E03193B29BF0734085B
:1002780003110318013E03194229C0073508031169
:100288000318013E03194929C1070830B2000310B9
:10029800B80DB90DBA0DBB0DB20B4B292B08B20026
:1002A8003208F3002E080A128A158E240A128A11BF
:1002B800740883120313C3007308C2004208B20013
:1002C8004308B300B401B5013208B8073308031175
:1002D8000318013E03197129B907340803110318DB
:1002E800013E03197829BA07350803110318013E9E
:1002F80003197F29BB072A08B2003208F3002F0828
:100308000A128A158E240A128A117408831203139A
:10031800C3007308C2004208B2004308B300B40126
:10032800B5013208B807330803110318013E031951
:100338009E29B907340803110318013E0319A5299A
:10034800BA07350803110318013E0319AC29BB0786
:100358000830B2000310B80DB90DBA0DBB0DB20BC1
:10036800AE292A08B2003208F3002E080A128A15AC
:100378008E240A128A11740883120313C3007308A7
:10038800C2004208B2004308B300B401B501320804
:10039800B807330803110318013E0319D429B90714
:1003A800340803110318013E0319DB29BA0735087D
:1003B80003110318013E0319E229BB072B08B200F9
:1003C8003208F30030080A128A158E240A128A119C
:1003D800740883120313C3007308C2004208B200F2
:1003E8004308B300B401B5013208BE07330803114E
:1003F8000318013E0319012ABF0734080311031823
:10040800013E0319082AC007350803110318013EE5
:1004180003190F2AC1072C08B2003208F3002F086D
:100428000A128A158E240A128A1174088312031379
:10043800C3007308C2004208B2004308B300B40105
:10044800B5013208BE07330803110318013E03192A
:100458002E2ABF07340803110318013E0319352A51
:10046800C007350803110318013E03193C2AC107C8
:100478002C08B2003208F30030080A128A158E24BC
:100488000A128A11740883120313C3007308C20086
:100498004208B2004308B300B401B50108300310A4
:1004A800B20DB30DB40DB50DFF3E031D532A32082E
:1004B800BE07330803110318013E0319642ABF0756
:1004C800340803110318013E03196B2AC0073508C5
:1004D80003110318013E0319722AC1073808B20034
:1004E8003908B3003A08B4003B08B50018300310C7
:1004F800B50CB40CB30CB20CFF3E031D7B2A3208BA
:10050800BE07330803110318013E03198C2ABF07DD
:10051800340803110318013E0319932AC00735084C
:1005280003110318013E03199A2AC1070830B200C3
:100538000310B80DB90DBA0DBB0DB20B9C2A3D08BE
:100548003C07B200B301B30D3208823EC200330843
:100558000318013EFF3EC300CE2A0130B20003104B
:10056800BE0DBF0DC00DC10DB20BB32ABB1FBD2AF6
:10057800BE2ABF2A3E140130B2000310B80DB90DCF
:10058800BA0DBB0DB20BC12AFF30C2070318C30A4C
:10059800FF30C307C01FD12AD22AB12ABC01BB1F12
:1005A800D62AD72AF32AFF303805B200FF3039059A
:1005B800B300FF303A05B4007F303B05B50035087D
:1005C8003404330432040319EA2AEB2AEE2ABC0164
:1005D800BC0AF32A3E1CF12AF22AF32AEB2A3C0829
:1005E8000319F72AF82A292B0130BE07003003180F
:1005F8000130BF07003003180130C007003003186E
:100608000130C107411C092B0A2B292B3E08B200D7
:100618003F08B3004008B4004108B5000130B600F7
:10062800350DB50CB40CB30CB20CB60B142B350845
:10063800C1003408C0003308BF003208BE000130D2
:10064800C2070318C30A0030C3074308803AFF00F3
:1006580080307F02031D322BFF304202031C352BF2
:10066800362B412B7F3083120313C1008030C0002A
:100678000030BF000030BE00762B831203134308FE
:10068800803AFF0080307F02031D4C2B013042026C
:1006980003184F2B502B5C2B003083120313C1001F
:1006A8000030C0000030BF000030BE00B701762B1C
:1006B800831203134208B2003208BD00FF30BE05A2
:1006C800FF30BF057F30C0050030C1053D1C6D2BD4
:1006D8006E2B6F2BC0173D08B2000310320CB3000D
:1006E8003308C1003708B2003208C1044108AD0020
:1006F8004008AC003F08AB003E08AA00080083127F
:10070800031361088039E600660883160313A00006
:10071800831203136108E6006607E700670883167B
:100728000313A20083120313E01F9B2B9C2B9F2B08
:100738008316031322148316031322080319A52B07
:10074800A62BB92B220A031DAA2BAB2BB52B0030E5
:1007580083120313E1000030E0000030DF000030B6
:10076800DE008312E017E101C32B0030831203136C
:10077800E1000030E0000030DF000030DE006508F6
:100788008039E600660883160313A10021082006B5
:100798000319CF2BD02BD12B2017831203136508F5
:1007A800E6006607E700670883160313A1008312B3
:1007B8000313E41FE02BE12BE42B8316031321140E
:1007C8008316031321080319EA2BEB2BFE2B210AAE
:1007D800031DEF2BF02BFA2B003083120313E500D7
:1007E8000030E4000030E3000030E2008312E41738
:1007F800E501082C003083120313E5000030E40003
:100808000030E3000030E2008316031322082102BF
:1008180003180F2C102C862C201F132C142C1C2C86
:10082800803083120313E600660883160313A006BC
:10083800220883120313E600660883160313A30035
:10084800210883120313E600660883160313A20027
:10085800230883120313E600660883160313A10016
:10086800831203135E08E600660883160313A300C9
:10087800831203136208E6006608DE00831603137A
:10088800230883120313E6006608E2005F08E60007
:10089800660883160313A300831203136308E60094
:1008A8006608DF0083160313230883120313E60088
:1008B8006608E3006008E600660883160313A300D1
:1008C800831203136408E6006608E0008316031326
:1008D800230883120313E6006608E4006108E600B3
:1008E800660883160313A300831203136508E60042
:1008F8006608E10083160313230883120313E60036
:100908006608E50083160313A30121088312031365
:10091800E600E7016708E90083160313220883123B
:1009280003136602E800031CE9036908803AFF0024
:1009380080307F02031DA22C1A306802031CA52CEC
:10094800A62CF82C83120313610860045F045E046C
:10095800031DAF2CB12C0130B22C0030E600660824
:1009680083160313A300003083120313E100003041
:10097800E0000030DF000030DE008316031321089A
:1009880083120313E600660883160313A200002DE2
:10099800231CCF2CD02CDD2C230883120313E60054
:1009A8000310660C0138E700670883160313A300D9
:1009B800DF2C0310A30C831203135E1CE42CE52C1C
:1009C800E82C83160313A31701308312E600610D88
:1009D800E10CE00CDF0CDE0CE60BEB2C0130E60042
:1009E800660883160313A20783160313210822023D
:1009F800031CFF2C002DCC2C201B032D042D602D57
:100A08002208031D082D092D142D0030831203130D
:100A1800E1000030E0000030DF000030DE00C22ED0
:100A2800831203136208DE07630803110318013EEB
:100A380003191F2DDF07640803110318013E03196A
:100A4800262DE007650803110318013E03192D2D13
:100A5800E107611C302D312D262E83160313231C2C
:100A6800362D372D442D230883120313E600031077
:100A7800660C0138E700670883160313A300462DA8
:100A88000310A30C831203135E1C4B2D4C2D4F2D0A
:100A980083160313A31701308312E600610DE10CDE
:100AA800E00CDF0CDE0CE60B522D0130E600660888
:100AB80083160313A207262E831203136108803AB4
:100AC800FF006508803A7F02031D742D64086002E8
:100AD800031D742D63085F02031D742D62085E02F6
:100AE8000318772D782DD42DFF30E600FF30E7006E
:100AF800FF30E800FF30E9006208EA006308EB0015
:100B08006408EC006508ED005E08EA025F08031C53
:100B18005F0F8F2D902DEB026008031C600F952D41
:100B2800962DEC026108031C610F9B2D9C2DED0294
:100B38006A08E6076B0803186B0FA32DA42DE707B7
:100B48006C0803186C0FA92DAA2DE8076D08031867
:100B58006D0AE9076908E1006808E0006708DF0036
:100B68006608DE008030E600660883160313A006D8
:100B7800A309A30A2308031DC22DC32DE22D0130AA
:100B880083120313DE07003003180130DF0700303B
:100B980003180130E007003003180130E107E22DA7
:100BA8006208DE026308031C630FDF026408031C8B
:100BB800640FE0026508031C650FE10283126108F7
:100BC80060045F045E04031DEA2DEB2D212E8316BD
:100BD80003132308031DF12DF22D212E003083125B
:100BE8000313E1000030E0000030DF000030DE00D9
:100BF800C22E0130E6000310DE0DDF0DE00DE10D21
:100C0800E60BFF2D83160313A31F0B2E0C2E0F2E9E
:100C1800831203135E1483160313231C142E152E3C
:100C2800182E0314A30D1A2E0310A30D220803195E
:100C38001E2E1F2E212E0130A2028312E01F252E08
:100C4800262EFD2D83160313A101A31F2C2E2D2E56
:100C58003F2E23087F390319322E332E382E831660
:100C68000313A101A10A3F2E831203135E1C3D2E1C
:100C78003E2E3F2E332E8316031321080319452ECB
:100C8800462E822E013083120313DE07003003182C
:100C98000130DF07003003180130E0070030031887
:100CA8000130E107611C592E5A2E822E5E08E6009B
:100CB8005F08E7006008E8006108E9000130EA0021
:100CC800690DE90CE80CE70CE60CEA0B642E6908E0
:100CD800E1006808E0006708DF006608DE008316A8
:100CE8000313220A0319792E7A2E822E01308312D9
:100CF8000313E600660883160313A207831603137B
:100D0800220A0319882E892E8E2E2208031D8D2E65
:100D18008E2EA02E003083120313E1000030E00075
:100D28000030DF000030DE00831603132208031DA5
:100D38009E2E9F2EA02EA001221CA32EA42EA82EEC
:100D480083120313E017AE2E7F3083120313E600DD
:100D58006608E00583160313220883120313E600CE
:100D68000310660CE7006708E10083160313A01F51
:100D7800BE2EBF2EC22E83120313E117080083165E
:100D88000313B0003D3083120313E1002330E00069
:100D9800D730DF000A30DE004630C7000C30C6000E
:100DA800A030C5000030C4004130AD003030AC0088
:100DB8000030AB000030AA00831603133008A400EB
:100DC800A501A601A7012708F6002608F5002508B1
:100DD800F4002408F30000300A128A1567250A1265
:100DE8008A11760883120313B1007508B0007408DD
:100DF800AF007308AE000A128A1122200A128A1163
:100E0800831203132D08CB002C08CA002B08C90035
:100E18002A08C8000A128A1523260A128A11831280
:100E280003134708E5004608E4004508E3004408C2
:100E3800E2000A128A1183230A128A118312031309
:100E4800610883160313AF00831203136008831627
:100E58000313AE00831203135F0883160313AD0058
:100E6800831203135E0883160313AC004230831207
:100E78000313AD00C830AC000030AB000030AA004E
:100E8800831603132F0883120313B1008316031369
:100E98002E0883120313B000831603132D08831240
:100EA8000313AF00831603132C0883120313AE0039
:100EB8000A128A1122200A128A11831203132D089A
:100EC80083160313AB00831203132C088316031332
:100ED800AA00831203132B0883160313A900831295
:100EE80003132A0883160313A8002B08F6002A0800
:100EF800F5002908F4002808F3000A128A15EB24E3
:100F08000A128A11730883160313A40083120313A9
:100F18006E088400831603132408831380000800D6
:100F280083160313061086148801FF3083120313F7
:100F3800880006100A128A11E5270A128A110A1275
:100F48008A157A240A128A11831603133308831226
:100F5800031388004130831603133306031DB52F8E
:100F6800B62FCE2F83120313861CBB2FBC2FC22F84
:100F78000A128A156D240A128A11A82F0A128A15D4
:100F880053240A128A11A82F0A128A1560240A12F9
:100F98008A11A82F3308B100B2013208003A0319A8
:100FA800D62FE12F3108433A0319C22F0B3A031900
:100FB800C82F073A0319BC2FE12FA82F0A128A114C
:100FC8000C28831203138E018F01101290129010B7
:100FD8009015101110141714971417119715003045
:100FE800960064309500831603130C150B178B17A6
:060FF800080041340F3433
:1018A600B430F900790883120313EE0000300A12EF
:1018B6008A11C3260A128A150800B430F90079087D
:1018C60083120313EE002D300A128A11C3260A1260
:1018D6008A150800B430F900790883120313EE0064
:1018E6005A300A128A11C3260A128A15080083166C
:1018F6000313181519309900181283120313981739
:1019060083160313071787178312031318168316F4
:1019160003138C16080083120313A400A001A1016F
:101926007308F500F6017508A2007608A300241CCA
:101936009D2C9E2CA42C2208A0070318A10A23087C
:10194600A10701300310A20DA30DFF3E031DA52C18
:101956000310A40C2408031DB12CB22C9A2C2108C8
:10196600F4002008F3000800831203130C1DBC2C9E
:10197600BD2CD72C0130F0007008FA07831603132C
:1019860034087A02031CC82CC92CCC2C83120313EE
:101996000610C8307A06031DD12CD22CD52C831202
:1019A6000614FA0183120C118C1EDA2CDB2CE42CA3
:1019B6001A08F000700883160313B300831203138A
:1019C6008C1272088A00710E8300FE0E7E0E0900CC
:1019D6000310750D760D83120313A0002008F8007E
:1019E6007808031DF72CF82C012D0030F600003086
:1019F600F5000030F4000030F300662D7308A000F7
:101A06007408A1007508A2007608A3001F30031011
:101A1600A30CA20CA10CA00CFF3E031D0A2D20084E
:101A2600A4002408F700F517FF30F305FF30F4058E
:101A3600FF30F5050030F6059630F802F81F242D24
:101A4600252D3F2D7808803A973E03182B2D2C2DF7
:101A56002D2DF82C01300310F60CF50CF40CF30CBC
:101A6600FF3E031D2E2D0130A0002008F807031DA0
:101A76003D2D3E2D2D2D562D20307802031C442D54
:101A8600452D512DF82C0130A0000310F30DF40D57
:101A9600F50DF60DA00B482D0130F8027808031D50
:101AA600552D562D462D770803195A2D5B2D662D7B
:101AB600F309F409F509F609F30A0319F40A0319F7
:101AC600F50A0319F60A080083120313A400240872
:101AD60003196E2D6F2D832DF61F722D732D832DF9
:101AE6007309A6007409A7007509A8007609A9005C
:101AF600A60A0319A70A0319A80A0319A90A8B2D0E
:101B06007608A9007508A8007408A7007308A6003F
:101B16007608750474047304031D922D932D9C2D71
:101B26000030F6000030F5000030F4000030F3001D
:101B3600222E9630A0002008A500AE2D0130A00070
:101B46002008A50701300310A90CA80CA70CA60CA9
:101B5600FF3E031DA62DFE302905031DB32DB42D12
:101B6600A12DD02D0130A0002008A5070130A60721
:101B7600003003180130A707003003180130A8070A
:101B8600003003180130A90701300310A90CA80C76
:101B9600A70CA60CFF3E031DC82DFF302905031D0B
:101BA600D52DD62DB52DE22D0130A5020130A00090
:101BB6000310A60DA70DA80DA90DA00BDB2DA81BC4
:101BC600E52DE62DEC2D023025020318EB2DEC2D2C
:101BD600D72D2518EF2DF02DF82DFF30A605FF3057
:101BE600A7057F30A805FF30A9050310A50C250819
:101BF600A000A101A201A30118300310A00DA10DA0
:101C0600A20DA30DFF3E031D002E2008A6042108E9
:101C1600A7042208A8042308A90424080319142EDB
:101C2600152E1A2EF61F182E192E1A2EA917290848
:101C3600F6002808F5002708F4002608F300080037
:101C4600831203134B088039CC004C08D5004B088F
:101C5600CC004C07CD004D08DC00CA1F332E342EB5
:101C6600352E5C145C080319392E3A2E4A2E5C0A6E
:101C7600031D3E2E3F2E472E0030CB000030CA00FB
:101C86000030C9000030C800CA17CB01522E003000
:101C9600CB000030CA000030C9000030C800470839
:101CA6008039CC004C08D5064708CC004C07CD003F
:101CB6004D08DD00C61F602E612E622E5D145D0884
:101CC6000319662E672E772E5D0A031D6B2E6C2E6A
:101CD600742E0030C7000030C6000030C50000304A
:101CE600C400C617C7017F2E0030C7000030C600EB
:101CF6000030C5000030C4004708460445044404CB
:101D0600031D862E872EA02E0030CB000030CA0081
:101D16000030C9000030C8008030CA047F30CB04D0
:101D26005508CC004C08CB044B08C7004A08C6002F
:101D36004908C5004808C400FF2F5C08031DA42EEF
:101D4600A52EAE2E0030C7000030C6000030C500FC
:101D56000030C400FF2F5C08CC00CD014D08CF0039
:101D66005D084C02CE00031CCF034E087F3ED60012
:101D76004F080318013E003ED7004B08D4004A081E
:101D8600D3004908D2004808D1000030CB0000300B
:101D9600CA000030C9000030C8000030DB00003047
:101DA600DA000030D9000030D800DD01242F5D08AC
:101DB6000319DE2EDF2EFF2E0130CC000310D10DCD
:101DC600D20DD30DD40DCC0BE12E0130CC00031077
:101DD600C80DC90DCA0DCB0DCC0BEA2EDB1FF42E98
:101DE600F52EF62E48140130CC000310D80DD90D6F
:101DF600DA0DDB0DCC0BF82E47085402031D0D2F10
:101E060046085302031D0D2F45085202031D0D2FD0
:101E160044085102031C102F112F202F5B17440872
:101E2600D1024508031C450FD2024608031C460F83
:101E3600D3024708031C470FD4020130CC004C08DC
:101E4600DD071A305D02031C292F2A2FDA2E5408CB
:101E56005304520451040319312F322F512F5814B1
:101E6600512F0130CC000310C80DC90DCA0DCB0D82
:101E7600CC0B362FDB1F402F412F422F4814013049
:101E8600CC000310D80DD90DDA0DDB0DCC0B442F89
:101E9600FF30D6070318D70AFF30D707CA1F542FBB
:101EA600552F342FDD01DB1F592F5A2F762FFF3088
:101EB6005805CC00FF305905CD00FF305A05CE003D
:101EC6007F305B05CF004F084E044D044C040319C8
:101ED6006D2F6E2F712FDD01DD0A762F481C742FB2
:101EE600752F762F6E2F5D0803197A2F7B2FAC2F57
:101EF6000130C807003003180130C9070030031845
:101F06000130CA07003003180130CB074B1C8C2F59
:101F16008D2FAC2F4808CC004908CD004A08CE00CA
:101F26004B08CF000130D0004F0DCF0CCE0CCD0C9E
:101F3600CC0CD00B972F4F08CB004E08CA004D088B
:101F4600C9004C08C8000130D6070318D70A00306C
:101F5600D7075708803AFF0080307F02031DB52F50
:101F6600FF305602031CB82FB92FC72FFF3083123C
:101F76000313D6000030D7000030CB000030CA0073
:101F86000030C9000030C800831203135708803A96
:101F9600FF0080307F02031DD22F01305602031846
:101FA600D52FD62FE32F83120313D601D701003086
:101FB600CB000030CA000030C9000030C800D5018F
:101FC600831203135608CC004C08DC005C1CEC2F73
:101FD600ED2FEF2FCA17F32F7F30CC004C08CA0520
:101FE6005C08CC0003104C0CCD004D08CB00550806
:0A1FF600CC004C08CB04972E080025
:02400E00713F00
:00000001FF
