:0300000002011EDC
:0C011E00787FE4F6D8FD75810A0200032A
:10000300A292E433F508A293E433F509A294E4330E
:10001300F50AE50970047E0180027E00E50870049C
:100023007D0180027D00ED5EFEE50A70047D0180A6
:10003300027D00EE5DFFE50970047E0180027E0013
:10004300E50870047D0180027D00ED5E550A25E020
:100053004207E50870047E0180027E00E5095EFE2A
:10006300E50A70047D0180027D00EE5D25E025E058
:100073004207E50870047E0180027E00E5095E55B3
:100083000A33333354F84207E50970047E018002D2
:100093007E00E5085EFEE50A70047D0180027D00B6
:1000A300EE5DC454F04207E50970047E0180027ED0
:1000B30000E5085E550AC43354E04207E5085509D4
:1000C300FEE50A70047D0180027D00EE5DC43333DA
:1000D30054C04207E5085509550AC43333335480E5
:1000E3004207E5805FFEC413135403FDEEC41313EC
:1000F3001354014DFDEEC41354074DFDEEC4540FCC
:100103004DFDEE131313541F4DFDEE1313543F4DCA
:0B011300FDEEC3134D4EF5A0020003EB
:00000001FF
